{
  "contractName": "Contacts",
  "abi": [
    {
      "constant": true,
      "inputs": [],
      "name": "count",
      "outputs": [
        {
          "internalType": "uint256",
          "name": "",
          "type": "uint256"
        }
      ],
      "payable": false,
      "stateMutability": "view",
      "type": "function"
    }
  ],
  "bytecode": "0x608060405260008055348015601357600080fd5b506084806100226000396000f3fe6080604052348015600f57600080fd5b506004361060285760003560e01c806306661abd14602d575b600080fd5b60336049565b6040518082815260200191505060405180910390f35b6000548156fea265627a7a723158202cf5ab2a10b5d26d2136e9f3226418dbc46cff66c686a8ff9c908787deb5dce364736f6c63430005100032",
  "source": "pragma solidity >= 0.4.22 < 0.9.0;\r\n\r\ncontract Contacts {\r\n    uint public count = 0; // state variable \r\n    \r\n}",
  "sourcePath": "C:\\Users\\sheha\\OneDrive\\Documents\\GitHub\\web3js-vue-hardhat-project\\contracts\\contracts\\contracts.sol",
  "compiler": {
    "name": "solc",
    "version": "0.5.16+commit.9c3226ce.Emscripten.clang"
  },
  "schemaVersion": "3.4.4",
  "updatedAt": "2022-01-05T14:04:49.153Z",
  "devdoc": {
    "methods": {}
  },
  "userdoc": {
    "methods": {}
  }
}